:10000000CAEF08F068961200046ED8CF05F0E0CF72
:1000100006F00001E9CF0CF0EACF07F0E1CF08F0DD
:10002000E2CF09F0D9CF0AF0DACF0BF0F3CF12F01C
:10003000F4CF13F0FACF14F0F5CF15F0F6CF16F099
:10004000F7CF17F000C00EF001C00FF002C010F0A3
:1000500003C011F0A0AA30EF00F0A1BA65EF06F0DE
:100060000EC000F00FC001F010C002F011C003F08C
:100070000CC0E9FF07C0EAFF078E08C0E1FF09C016
:10008000E2FF0AC0D9FF0BC0DAFF12C0F3FF13C0B2
:10009000F4FF14C0FAFF15C0F5FF16C0F6FF17C035
:1000A000F7FF045006C0E0FF05C0D8FF1000F76A54
:1000B000BE0FF66E000EF7220900F5501200000385
:1000C000FFFFFFFFFFFFFFFFFFFFFFFFFFFFF76ADD
:1000D000DE0FF66E000EF7220900F550120000FF49
:1000E000FFFFFFFFFFFFFFFFFFFFFFFFFFFFF76ABD
:1000F000FE0FF66E000EF7220900F55012004000C8
:1001000005000000000000000000000000000000EA
:100110000000000000000000000000000000F76A7E
:100120002E0FF66E010EF7220900F5501200400066
:1001300000000000000000000000000000000000BF
:100140000000000000000000000000000000F76A4E
:100150005E0FF66E010EF7220900F5501200050140
:100160000905A1010901A1000509190129061500C8
:100170002501950675018102950175028101050130
:10018000093009311581257F75089502810205091D
:1001900019012904150025019504750181029501B5
:1001A00075048101C0C0F76AB60FF66E010EF72222
:1001B0000900F55012000000F76AC80FF66E010E34
:1001C000F7220900F55012004800F76ADA0FF66EC0
:1001D000010EF7220900F550120009022200010168
:1001E000008032090400000103010200092100011E
:1001F00000012248000705810305000AF76A0C0F79
:10020000F66E020EF7220900F55012000100F76A9F
:100210001E0FF66E020EF7220900F55012001200B2
:10022000F76A300FF66E020EF7220900F550120041
:1002300012011001000000406104220000010102CF
:100240000001F76A520FF66E020EF7220900F55010
:1002500012000403090418034A004F00590020004B
:1002600043004F004E00540052004F004C0010035A
:1002700055005300420020005000490043006D9299
:10028000699468A402D06894FCD7689871EF06F06E
:10029000400E0401016F040E546E100E54C003F49E
:1002A000026F880E006F046B040E076F500E066F0E
:1002B0000001120070A002D0EBDF7090689A78EF16
:1002C00006F06A6A68927DEF06F060915FBE608119
:1002D0005F9E5F50100803E2000E016E16D060A111
:1002E0000BD0036A5F50E3DEFF0802E1000E01D08D
:1002F000010E016E0AD009D0036A5F50E8DEFF08E4
:1003000002E1000E01D0010E016E1200036A5E5080
:10031000700FE96E0F0E0320EA6EEF6A5EC05FF0A9
:10032000D4DF015218E05E50080DF350606BE96EA7
:10033000040E6025EA6EEF6A5E50080DF350606BA4
:100340005F6E040E5F26000E60235FC0E9FF040E9F
:100350006025EA6EEF6A1200010E5D6E5D500F08B7
:1003600005E35DC05EF0D2DF5D2AF8D71200256A92
:10037000246A536A53520AE1036A5350260FE96E06
:10038000000E0320EA6EEF6A532AF4D71B6A010EAF
:100390001C6E1A6A12006B6A696A6A6A686A6E6A17
:1003A000706ADADFE4DF160E706E68A602D02ADE0D
:1003B000FCD79F0E6B6E3D0E696E6D9869DF030E64
:1003C0001F6E82EF06F0698469986D8287EF06F0F0
:1003D000689C8CEF06F059C020F0120020681200D3
:1003E000576A2450251032E057503F082FE31D5024
:1003F000FC0F1AE2040F31EF02F023C003F0225089
:10040000E4DE586E11D023C003F02250A0DE586EF7
:100410000BD023C003F0225014DF586E05D023C048
:1004200003F02250FDDE586E222AD8B4232A24502D
:10043000D8B4250624065750572A036A500FE96E90
:10044000040E0320EA6E58C0EFFFCBD724502510CE
:1004500004E15750400801E01A6A57C059F0BBDF69
:100460001200E824F76AF7367D0FF66E040EF722C5
:100470000A00F550FA6E0800F550F96EFA0306040A
:1004800012041E04566A236A226A1D6A040113516B
:10049000010A000109E0030A0DE0010A0FE0220A47
:1004A00027E0030A3FE060D0256A120E246E030E97
:1004B0001D6E5CD0256A220E246E58D0020E1D6E71
:1004C000566A04011251565C0BE223C003F022501D
:1004D0000001B7DE2226000E2322562AF2D704019D
:1004E00023C003F022500001ACDE246E256A3ED00A
:1004F000D89004011235036A000189DE0900F5CFA6
:1005000003F0226E03C023F0223C02D0235208E005
:1005100023C003F0225059DE246E256A27D002D072
:100520005DDF33D0D89004011435036A00013BDE4F
:100530000900F5CF03F0226E03C023F0223C02D065
:10054000235210E0010E1D6ED89004011435036A89
:10055000000132DE0900F5CF03F0246E03C025F060
:1005600005D002D03BDF11D039DF0FD00401175383
:1005700008E1255203E12450165D03E2256A16C402
:1005800024F0010E1A6E00012BDF1200555204E117
:10059000040E1F6EE1DEB3D0050E1F6E040E586E02
:1005A000900E576E010E566E56500F08D8A0A7D069
:1005B00056C05EF0ABDE596A036A565088DDFF080C
:1005C0004FE0040E596ED8905634036AA8DD090036
:1005D000F5CF03F05A6E03C05BF05650080DF35090
:1005E0005E6A5D6E010E5D24016E000E5E20036E7C
:1005F00001C0E9FF040E0324EA6E5AC0EFFF565013
:10060000080DF3505E6A5D6E020E5D24016E000EF1
:100610005E20036E01C0E9FF040E0324EA6E58C099
:10062000ECFFED5257C0EFFFD8905634036A77DDE8
:100630000900F5CF03F0572603505822880E5C6E50
:100640005BA001D05C805BA201D05C825650080D9B
:10065000F3505E6AE96E040E5E24EA6E5CC0EFFF42
:10066000036A565024DDFF0834E059825650080DC5
:10067000F3505E6A5D6E040E5D26000E5E22020E71
:100680005D24016E000E5E20036E01C0E9FF040EC2
:100690000324EA6E58C0ECFFED5257C0EFFFD8902C
:1006A0005634036A24DD0900F5CF03F057260350C2
:1006B00058225650080DF3505E6A5D6E040E5D269A
:1006C000000E5E225DC0E9FF040E5E24EA6E400E5D
:1006D000EF6E5950060802E10E0E596E036A56502D
:1006E000E6DC010801E05988036A5650700FE96E94
:1006F0000F0E0320EA6E59C0EFFF562A55D7CEEFF2
:1007000003F004011151000A00010DE0010A14E098
:10071000020A1FE0060A29E0030A2EE00E0A2EE074
:10072000010A32E040D01CC050F40401516B020EAB
:10073000596E000150DE38D00401122D07D0010E91
:100740001C16596A000147DE03D00401000146DE91
:100750002BD00401122D06D01C82596A00013BDE09
:1007600003D0040100013ADE1FD0020E1A6E12C43B
:1007700021F0596A30DE18D085DE16D01BC050F447
:10078000010E596E28DE10D004011251010809E350
:1007900012C41BF012C455F00001F8D6596A1BDED2
:1007A0000401000101D01ADEE7EF04F01BC055F090
:1007B00004011151000A000107E00A0A0DE0010AD4
:1007C00028E00D0A38E039D00401506B516B020E5D
:1007D000596E000100DE32D0555219E0010E555C11
:1007E000036A0CDD016E0401145DD8A002D0000183
:1007F0000ED0036A1451260FE96E000E0320EA6E34
:10080000EFCF50F4010E596E0001E5DD01D0E6DDB9
:1008100015D055520EE0036A04011451260FE96EFB
:10082000000E0320EA6E12C4EFFF596A0001D3DD07
:1008300001D0D4DD03D026DE01D0D0DDE7EF04F017
:10084000569055BE5680559E56A011D05550080D55
:10085000F350586A576E040E5726000E582257C0A0
:10086000E9FF040E5824EA6E880EEF6E09D0555049
:10087000080DF350586AE96E040E5824EA6EEF6AC8
:10088000036A5550700F016E0F0E032201C0E9FF7D
:1008900003C0EAFFEF90ADEF04F0569055BE5680CE
:1008A000559E56A011D05550080DF350586A576EFA
:1008B000040E5726000E582257C0E9FF040E582494
:1008C000EA6E840EEF6E0AD05550080DF350586A48
:1008D000E96E040E5824EA6E840EEF6EB3EF04F056
:1008E000569055BE5680559E56A011D05550080DB5
:1008F000F350596A586E040E5826000E592258C0FB
:10090000E9FF040E5924EA6EEFCF57F00AD0555094
:10091000080DF350596AE96E040E5924EA6EEFCFC0
:1009200057F057AE02D057B402D0000E01D0010EDE
:10093000016EBDEF04F014C45FF0C7DC015228E083
:1009400004011151010A000105E0020A09E0030A4D
:100950000DE01DD014C455F073D7596A3CDD18D092
:1009600014C455F09AD7596A36DD12D00401506B81
:10097000516B14C455F00001B3D7015204E0010ECD
:100980000401506F0001020E596E25DD01D026DDF5
:10099000E7EF04F004011151000120DDE7EF04F05E
:1009A0001A6A040110517F0B000A000107E0010AD6
:1009B00007E0030A07E0230A07E008D0A2D607D021
:1009C000F5D605D0B8D703D0E5D701D007DD15EFB0
:1009D00006F05550080DF3505B6AE96E040E5B2477
:1009E000EA6EEFCF57F05650020806E157AC02D03E
:1009F000566A02D0010E566E5650030813E1840E5B
:100A0000576E5550080DF3505B6A5A6E040E5A2605
:100A1000000E5B225AC0E9FF040E5B24EA6E840ECE
:100A2000EF6E07D0562C03D0C80E576E02D0880E3A
:100A3000576ED8905534036A8FEC00F00900F5CF5B
:100A400003F0586E03C059F05550080DF3505B6A1F
:100A50005A6E010E5A24016E000E5B20036E01C017
:100A6000E9FF040E0324EA6E58C0EFFF59A001D03D
:100A7000578059A201D057825550080DF3505B6A38
:100A8000E96E040E5B24EA6E57C0EFFF1200036AA2
:100A90005A50700FE96E0F0E0320EA6EEF5212E00B
:100AA0005A50080DF3505C6A5B6E040E5B26000E14
:100AB0005C225BC0E9FF040E5C24EA6EEFCF5DF0C0
:100AC0005DAE02D0000E01D0010E016E120055C0C5
:100AD0005AF0DDDF01526EE05550080DF3505B6AAD
:100AE0005A6E040E5A26000E5B22010E5A24016E25
:100AF000000E5B20036E01C0E9FF040E0324EA6EC2
:100B000056C0EFFF5850020817E15550080DF3503A
:100B10005B6A5A6E040E5A26000E5B225AC0E9FF29
:100B2000040E5B24EA6EEFCF59F059AC02D0586A3C
:100B300002D0010E586E13D05850040810E15550E1
:100B4000080DF3505B6AE96E040E5B24EA6EEFCF8A
:100B500059F059AC03D0010E586E01D0586A582C88
:100B600003D0480E596E02D0080E596E5550080D2C
:100B7000F3505B6A5A6E040E5A26000E5B225AC06E
:100B8000E9FF040E5B24EA6E59C0EFFF5550080DD3
:100B9000F3505B6A5A6E040E5A26000E5B225AC04E
:100BA000E9FF040E5B24EA6EEF508009EF6E010E40
:100BB000016E02D0000E016E1200555200E11200CB
:100BC00056C06EFF565203E0040E1F6E02D0020E96
:100BD0001F6EF0EF05F01B6A1A6A21C056F0F0D7BD
:100BE000FDEF05F0555209E11A2C03D0F0EC01F0AD
:100BF00004D01A500208D8B4EED712001E30536E3B
:100C0000533253321F0E53161E5241E1040100515C
:100C10003C0B546E430E0017545034081EE104512F
:100C2000800B01E0046B0001BBD66D98203C05D021
:100C3000556A030E566ECDDE0ED0556A020E566E04
:100C4000C8DE2050FE0807E0556A576A20C056F0FB
:100C5000040E586E3CDF18D004015450040815E10E
:100C6000556A0001AADF556A020E566EB2DE2050A8
:100C7000FE080AE0203C01D007D0556A576A20C020
:100C800056F0010E586E23DF04011CD000011E50E7
:100C900004080EE12068556AA5DF203C01D007D08A
:100CA000556A576A20C056F0020E586E10DF09D000
:100CB0001EB404D053C055F080DF03D053C055F0AC
:100CC00091DF0401000196EF06F0A19A1F52D8B4FB
:100CD00033D06852D8B430D068A403D069B43FEFA1
:100CE00001F06DB229D068AA03D069BA5AEF01F0B9
:100CF00068A203D069B261EF01F068A003D069B0C7
:100D0000CBEF01F068A803D069B8E3EF01F068AC5D
:100D100003D069BCE8EF01F0526A68A608D069A662
:100D200006D06CCF1EF002EC00F068D701D004D0E2
:100D30005250522A0308F1E230EF00F06D926D6AD2
:100D4000696A080E6F6E94503009946E1F6A196AB2
:100D5000F2BE198EF29EB7EC01F019BEF28EB2EF20
:100D600006F0ECD7D4EF08F0EA6A400EE96EEF50D7
:100D70000EE00F0E016E006A002EFED7012EFBD78B
:100D80008F0E006E002EFED70000EF2EF2D712005D
:100D90004C6A4D6A010E4E6EDA6AD96A516A440E87
:100DA000506EEA6A480EE96E51C0E2FF50C0E1FFA2
:100DB0004EC04FF0D890E550EE02F3504C22F45064
:100DC0004D224F2EF7D74CC0DEFF4DC04CF04D6A80
:100DD000D8B04D2A502AD8B4512A4E2A4E50050870
:100DE000E0E17EEF07F0D8B203D0EA6A4C0EE96E7C
:100DF000006A016A026A036A4C6A4D6A4E6A4F6A67
:100E00004B504A10491048102CE0200E506ED890DC
:100E100044364536463647364C364D364E364F36D6
:100E20004B504F5C08E14A504E5C05E149504D5C27
:100E300002E148504C5C0FE348504C5E4950D8A04A
:100E4000493C4D5E4A50D8A04A3C4E5E4B50D8A01B
:100E50004B3C4F5ED8800036013602360336502EAA
:100E6000D6D74CC0EFFF4DC0ECFF4EC0ECFF4FC0DB
:100E7000ECFF95EF07F03F6A3E6A3D6A3C6A3B6AC9
:100E80003B5007081CE33A34006E0036FC0E001697
:100E9000C250C30B0010C26E4F0E006E002EFED764
:100EA00000D0C282C2B2FED7C4503C26000E3D2202
:100EB0003E223F22050E406E57DF3B2AE1D73F30EE
:100EC000436E3E30426E3D30416E3C30406E4332A8
:100ED00042324132403243324232413240321F0EBE
:100EE000431643C047F042C046F041C045F040C001
:100EF00044F04B6A4A6A496A48684AD703C043F0DB
:100F000002C042F001C041F000C040F0D89203C0DE
:100F100047F002C046F001C045F000C044F04B6A03
:100F20004A6A030E496E48685ED700C001F012009D
:100F3000196AF2BE198EF29EB7EC01F019BEF28E5C
:100F40006D926D6A6D8C00D000D000006D9C140E07
:100F50006F6E696A6D86010E1F6EB2EF07F06DB697
:100F600001D0E6D71F2C0BD06DBA09D0686A696A28
:100F7000A08AC00EF212110E696E020E1F6EF5EFFE
:100F800008F01B50016EF6EF08F0938881A802D09C
:100F9000010E01D0000E406E958883A802D0010E8C
:100FA00001D0000E416E958A83AA02D0010E01D0B5
:100FB000000E426E958083A002D0010E01D0000E7B
:100FC000436E958283A202D0010E01D0000E446EC2
:100FD000958483A402D0010E01D0000E456E958643
:100FE00083A602D0010E01D0000E466E938081A030
:100FF00002D0010E01D0000E476E938281A202D072
:10100000010E01D0000E486E938481A402D0010E1F
:1010100001D0000E496E938681A602D0010E01D048
:10102000000E4A6E400E016E026AFBEF08F03E5061
:101030004002F3CF01F0F4CF00F04102F35000265C
:101040003F504002F3500020026E64EF08F0016A46
:10105000026A006A036A435002E1425018E0100E2F
:10106000446ED89040364136003603364350035C18
:1010700002E14250005C07E34250005ED8A0030644
:101080004350035ED88001360236442EEAD770EF13
:1010900008F03A34006E0036FC0E0016C250C30B46
:1010A0000010C26E4F0E006E002EFED700D0C2821E
:1010B000C2B2FED73D6AC4CF3CF03DC03FF03CC059
:1010C0003EF0416A4068B3D702C03FF001C03EF035
:1010D00002C041F001C040F0030E436E4268B7D732
:1010E0003B50015C3C6E000E02583D6E3CC001F06E
:1010F0001200196AF2BE198EF29E3AC05AF0C7DC8D
:1011000019BEF28E015242E03A50080DF350436A84
:10111000426E040E4226000E4322020E4224016E4D
:10112000000E4320036E01C0E9FF040E0324EA6EA3
:10113000ECCF41F0ED52EFCF40F041C0EAFF40C0AC
:10114000E9FF3CC0E2FF3BC0E1FF3EC002F03DC012
:1011500001F0015202E0022A02D0025206E0E6CF7C
:10116000EEFF012EFCD7022EFAD7196AF2BE198EB5
:10117000F29E3AC055F03EC057F03DC056F03FC019
:1011800058F0A5DC19BEF28E015002D0000E016E9F
:1011900044EF09F0F86AD09E078EC150C00B0F09CA
:1011A000C16E070EB46EDDD5800E276E286EC1505D
:1011B000C00B0D09C16EC050C00B0709C06EC09EA8
:1011C000C280030E926E1F0E936E936A8A6A3F0E60
:1011D000956E3A6A50DE01C027F0010E3A6E4BDE82
:1011E00001C028F0939A8A8ABAD6CBD601524CE035
:1011F000346A356ACAD602C003F001C0E1FF02C0FA
:10120000E2FFEA6A290EE96E0B0E016EE6CFEEFFF1
:10121000012EFCD72E5201E034802D5201E03482A1
:101220002F5201E034842C5201E034862B5201E02D
:1012300034882A5201E0348A305201E0358033523A
:1012400001E03582315201E03584325201E03586C9
:1012500034C036F03A6A27C03BF01BDF01C037F0DC
:10126000010E3A6E28C03BF014DF01C038F035C0E3
:1012700039F0010E3A6E3C6A360E3B6E3E6A040E41
:101280003D6E020E3F6E35D7010E406E6DDDACD760
:02129000030059
:020000040030CA
:0E00000024CE3E1E0087A1000FC00FE00F406F
:00000001FF
;PIC18F4550
;CRC=37E8  CREATED="28-nov.-25 03:32"
